:100000000C9464000C948C000C948C000C948C0068
:100010000C948C000C948C000C948C000C948C0030
:100020000C948C000C948C000C948C000C948C0020
:100030000C948C000C948C000C948C000C948C0010
:100040000C94D1080C948C000C94D0090C94220AC6
:100050000C948C000C948C000C948C000C948C00F0
:100060000C943C060C948C00000000002400270037
:100070002A0000000000250028002B0000000000DE
:1000800023002600290004040404040404040202DA
:100090000202020203030303030301020408102007
:1000A0004080010204081020010204081020000012
:1000B0000007000201000003040600000000000029
:1000C00000008E003205910B11241FBECFEFD8E047
:1000D000DEBFCDBF11E0A0E0B1E0E0E7F8E102C093
:1000E00005900D92A835B107D9F713E0A8E5B1E066
:1000F00001C01D92A434B107E1F710E0C8ECD0E0D4
:1001000004C02297FE010E94320CC23CD107C9F7FD
:100110000E946D090C94360C0C940000EF920F9322
:1001200088E591E00E94F30382E691E063E171E0EB
:100130004FE151E023E231E004E0E3E0EE2E0E94E3
:1001400080030F91EF9008951F9382E691E00E9443
:100150006203182F882381F082E293E0612F0E94CE
:10016000A80988E591E0612F0E94A8091A3221F4BC
:1001700088E591E00E948F041F9108950F931F93CB
:1001800082E293E040E855E260E070E00E945D0AA0
:1001900008E511E0C80160E142E020E00E94970418
:1001A000C80160E071E00E94CC091F910F91089591
:1001B0002F923F924F925F926F927F928F929F9277
:1001C000AF92BF92CF92DF92EF92FF920F931F9365
:1001D000DF93CF9300D000D0CDB7DEB79C838B8365
:1001E00000E066E6A62EB12CA80EB91E52E6C52E7A
:1001F000D12CC80ED91E13C0AB81BC818D919C91AE
:10020000F601A081B181A00FB11DFC0120813181D7
:100210008B819C816C9142E0F90109950F5FD501BA
:100220008C91081748F3EE24EB81FC81E959FF4FCC
:10023000FA83E98344E6A42EB12C8B819C81A80E1D
:10024000B91E36E6232E312C280E391E22E6422E08
:10025000512C480E591E92C0CE2CDD24AB81BC819E
:100260008D919C91D501ED91FC91EC0DFD1DDC0172
:100270002D913C918B819C81608141E0F901099530
:10028000EB81FC8180819181D501ED91FC91EC0D98
:10029000FD1DDC0112962D913C9113978B819C8161
:1002A000608140E0F901099581E090E0A0E0B0E0D4
:1002B0000E2C04C0880F991FAA1FBB1F0A94D2F7E7
:1002C0004C013C0160947094FF242DC00F2D10E070
:1002D000D201ED91FC91E00FF11FD90114962D91FF
:1002E0003C9115978B819C816081F9010995F801FA
:1002F0003496892B59F4EE0FFF1F8B819C81E80FF8
:10030000F91F80819181882999290AC0EE0FFF1F6A
:10031000AB81BC81EA0FFB1F8081918186219721EF
:1003200091838083F394F1018081AB81BC812D9115
:100330003C91F81658F2D501ED91FC91EC0DFD1DA4
:10034000D90112962D913C9113978B819C816081EC
:1003500041E0F9010995EB81FC8180819181D50112
:10036000ED91FC91EC0DFD1DDC012D913C918B81FB
:100370009C81608140E0F9010995E394E981FA816B
:100380008081E81608F468CF0F900F900F900F90BF
:10039000CF91DF911F910F91FF90EF90DF90CF9061
:1003A000BF90AF909F908F907F906F905F904F9095
:1003B0003F902F900895CF93DF93DC01862F90E03C
:1003C000FC01EE0FFF1FE80FF91FEE0FFF1FEA0FF2
:1003D000FB1F50A3478F81E081A3A459BF4F8C918D
:1003E000AC56B040ED01C359DF4F882351F0E8818E
:1003F000F981309771F0662361F45C968C910995D0
:1004000008C0288139812115310519F0848DF90141
:100410000995DF91CF9108950F931F93CF93DF93A9
:10042000EC01162F042F862F90E0FC01EE0FFF1F2A
:10043000E80FF91FEE0FFF1FEC0FFD1F11A2878DB4
:1004400090A181309105E1F0823091051CF4892B57
:1004500039F03FC08230910581F10397D1F534C066
:100460000130B9F5CE0141E050E00E94DB010E946D
:100470001909C85ADF4F688379838A839B8329C00F
:100480000E941909C85ADF4F288139814A815B814E
:10049000621B730B840B950B629628813981CA56B7
:1004A000D04040E050E0261737074807590728F4A6
:1004B000CE01612F42E050E00AC0002351F4CE018A
:1004C000612F43E050E003C0CE0140E050E00E94C5
:1004D000DB01DF91CF911F910F9108954F925F92B1
:1004E0006F927F928F929F92AF92BF92DF92EF9224
:1004F000FF920F931F93CF93DF93EC01FC017C9647
:1005000020E04FEF5FEF83819481892B21F41082EB
:100510005283418315822F5F36962A30A1F7EE244D
:1005200006E6402E512C4C0E5D1E17E6612E712CF6
:100530006C0E7D1EB0E68B2E912C8C0E9D1E59C02C
:100540002F2D30E0D8018D919C910F2C02C09695F3
:1005500087950A94E2F7DD24D394D822852F90E082
:10056000A89EA001A99E500DB89E500D1124420FC7
:10057000531FD401ED91FC91E40FF51F2081DE01A2
:10058000FE0160E070E0858D968D8417950719F463
:10059000CE014D2D1EC06F5F7F4F36966A307105BC
:1005A00091F752C060E070E05C968C915C97882374
:1005B00099F4FB01EE0FFF1FE60FF71FEE0FFF1F71
:1005C000EC0FFD1F248F568F458F10A2178ECE0182
:1005D00041E00E940C0206C06F5F7F4F16966A30A2
:1005E000710511F7F394F3015081F51608F4A8CFC3
:1005F000E394D2018C91E81658F4FF24AE2CBB246E
:1006000085010C5F1F4F000F111F0C0F1D1FEBCF3B
:10061000FE01B19620E090E08081811121E09F5F92
:1006200036969A30C9F7822FDF91CF911F910F91A3
:10063000FF90EF90DF90BF90AF909F908F907F9052
:100640006F905F904F900895DD2009F0ABCFCACF37
:10065000EF92FF921F93CF93DF93EC010E94190951
:100660002CE5E22EF12CEC0EFD1EF70120813181EC
:1006700042815381621B730B840B950BC859DF4F6A
:1006800028813981C856D04040E050E0261737070E
:100690004807590710F010E00EC0CE010E94D800A4
:1006A000CE010E946E02182F0E941909F701608383
:1006B000718382839383812FDF91CF911F91FF906C
:1006C000EF900895CF93DF93EC01C459DF4F81E0A1
:1006D0008883CC56D040CE010E942803882359F04D
:1006E00089A1882341F08F8D98A1019721F48C8DE9
:1006F000DF91CF910895C459DF4F188280E0F8CF81
:100700006F927F928F929F92AF92BF92CF92DF9221
:10071000EF92FF920F931F93CF93DF93EC014B0166
:100720006A015901702E6E2C02960E94E7038AE23C
:1007300091E0998388833CE1E32EF12CEC0EFD1EC1
:1007400000E010E0C701800F911F0E94ED030A5FD7
:100750001F4F0C331105B1F7CE59DF4FC992D99213
:10076000A992B9927992688227979982888228966D
:100770008AE090E08993999384EF91E0998388834C
:100780002396198218826197188219821A821B8215
:1007900060961882DF91CF911F910F91FF90EF909B
:1007A000DF90CF90BF90AF909F908F907F906F9091
:1007B0000895862F0E947E080895862F642F0E9438
:1007C0002A080895862F642F0E94EB070895FC01E4
:1007D00010821482138215820895FC011082148203
:1007E000138215820895FC011382128284E391E042
:1007F000918380830895EF92FF920F931F93162F9A
:10080000042F87E1E82E82E0F82EC70162E670E04F
:100810000E94F804C701612F0E947A05C701602F6A
:100820000E947A05C7010E94BD051F910F91FF909C
:10083000EF900895EF92FF920F931F938C01362F44
:10084000F42EE22E64E0432F0E94FB03C80163E014
:100850004F2D0E94FB03C80162E04E2D0E94FB0356
:100860001F910F91FF90EF900895EF92FF920F93D9
:100870001F93CF93DF937C01162F87E192E06EE305
:1008800070E00E94F804C0E0D0E0012F10E009C041
:10089000F701EC0FFD1F87E192E060810E947A056D
:1008A0002196C017D107A4F387E192E00E94BD050D
:1008B000DF91CF911F910F91FF90EF900895DF93FB
:1008C000CF9300D0CDB7DEB780E489836A83CE01B1
:1008D000019662E00E94350481E090E00F900F9055
:1008E000CF91DF910895DF93CF9300D0CDB7DEB7DE
:1008F00080E889836A83CE01019662E00E94350414
:100900000F900F90CF91DF910895FC016581862FA4
:10091000846085836C60CF010E947304089561E058
:100920000E94730480ED97E00E94270908950F93B9
:100930001F93CF93DF93EC01142F022F87E192E0F6
:100940000E94C105123018F08C8188608C83188752
:100950001986002329F0113019F48C8184608C836E
:1009600080E593EC0E9427096C816062CE010E94B1
:10097000730484E991E10E9427096C816062CE01D1
:100980000E94730486E990E00E9427096C816062EE
:10099000CE010E9473046C816062CE010E947304D8
:1009A00084E08D83CE010E948504CE010E948F04D5
:1009B00082E08E83CE0166E00E947304CE0160E087
:1009C00040E00E94FB03CE0161E040E00E94FB0397
:1009D000CE0168E04AEA0E94FB03CE016FEF4FEFC1
:1009E0002FEF0E941A04DF91CF911F910F9108956C
:1009F00081E0809316026093F3011092140210922A
:100A0000150208952091F20130E08091F101281B38
:100A10003109C90108954091F1018091F20148170F
:100A200018F02FEF3FEF0AC0E42FF0E0EF52FE4F37
:100A30008081282F30E04F5F4093F101C901089574
:100A4000E091F1018091F201E81718F0EFEFFFEF6C
:100A500006C0F0E0EF52FE4F8081E82FF0E0CF01BA
:100A60000895089510921A021092190288EE93E0E8
:100A7000A0E0B0E080931B0290931C02A0931D02A3
:100A8000B0931E028CE391E09093180280931702BA
:100A90000895CF92DF92EF92FF920F931F93CF931F
:100AA000DF937C016B018A01809116028823A1F0FB
:100AB000C0E0D0E00DC0D701ED91FC91D601AC0FA4
:100AC000BD1F0190F081E02DC7016C910995219621
:100AD000C017D10780F304C0CB01642F0E94210608
:100AE000C801DF91CF911F910F91FF90EF90DF90A0
:100AF000CF900895DF93CF930F92CDB7DEB7FC016F
:100B00006983809116028823C9F080911502803292
:100B100038F081E090E09383828320E030E015C0DC
:100B200080911402E82FF0E0EC50FE4F9981908301
:100B30008F5F809314028093150205C0CE01019649
:100B400061E00E94210621E030E0C9010F90CF91C1
:100B5000DF9108950F93062F8091F30164EF71E008
:100B60004091150221E00E94CC05109214021092CF
:100B70001502109216020F91089561E00E94AA05D5
:100B800008951092F1011092F20110921402109245
:100B900015020E94CD0708950F931F93582F122F0F
:100BA000413210F081E04AC0809123028823E1F7AE
:100BB00082E080932302009325028FEF80939002BE
:100BC00010924B0240934C02ABE2B2E0FB0102C038
:100BD00081918D938E2F861B8417D0F3109224025F
:100BE00080912402550F852B809324028091260248
:100BF000813041F410922602809124028093BB0040
:100C000085EC01C085EE8093BC00112321F080911A
:100C100023028230E1F3809190028F3F11F480E053
:100C20000DC080919002803211F482E007C0809163
:100C30009002803311F084E001C083E01F910F9196
:100C40000895482F613210F081E0089580912302C9
:100C5000843011F082E0089560936E02ADE4B2E05A
:100C6000842F9C01F90102C081918D938E2F841BEA
:100C70008617D0F380E008951F920F920FB60F925F
:100C800011242F933F934F935F936F937F938F9391
:100C90009F93AF93BF93EF93FF938091B90090E040
:100CA000887F90708036910509F4F2C081369105F5
:100CB000CCF58832910509F47BC089329105B4F4F2
:100CC0008031910509F46FC0813191053CF40097A2
:100CD00009F447C1089709F04FC165C088319105F3
:100CE00009F466C0809709F047C182C0803491053D
:100CF00009F4A4C08134910544F48033910509F4CA
:100D000082C0C89709F038C189C08035910509F4BF
:100D100089C08835910509F496C08834910509F099
:100D20002BC1AEC08839910509F413C189399105E9
:100D3000ECF48837910509F4ABC0893791054CF480
:100D40008836910509F4A4C08037910509F014C1D3
:100D50009FC08838910509F4FCC08039910509F4D9
:100D60009DC08038910509F007C198C0803B91056E
:100D700009F4C6C0813B91054CF4803A910509F411
:100D80009FC0883A910509F0F7C0BAC0803C910530
:100D900009F4E3C0883C910509F4DFC0883B910564
:100DA00009F0EAC0C2C0809124028093BB00CFC08A
:100DB00090914B0280914C02981768F490914B02ED
:100DC000E92FF0E0E55DFD4F80818093BB009F5FE0
:100DD00090934B02BCC080912502882309F44BC03C
:100DE00085ED8093BC008091BC0084FDFCCFC2C027
:100DF00080E28093900285ED8093BC008091BC00DE
:100E000084FDFCCFB7C080E38093900285ED809392
:100E1000BC008091BC0084FDFCCFACC088E3809313
:100E200090029BC080914B029091BB00E82FF0E0B4
:100E3000E55DFD4F90838F5F80934B0290914B0255
:100E400080914C0282C080914B029091BB00E82FB0
:100E5000F0E0E55DFD4F90838F5F80934B028091C2
:100E60002502882341F085ED8093BC008091BC0071
:100E700084FDFCCF7FC081E08093260284EA6EC0AF
:100E800085ED8093BC008091BC0084FDFCCF72C0D6
:100E900083E08093230210928F0259C080918F02C9
:100EA000803208F056C080918F029091BB00E82FED
:100EB000F0E0E159FD4F90838F5F80938F0247C030
:100EC00080918F02803230F4E0918F02F0E0E1599E
:100ED000FD4F108285ED8093BC008091BC0084FDA5
:100EE000FCCF1092230260918F02E0912902F091D1
:100EF0002A028FE692E070E0099510928F022DC0D1
:100F000084E08093230210926D0210926E02E091B1
:100F10002702F0912802099580916E02882329F416
:100F200081E080936E0210924D0290916D02E92F44
:100F3000F0E0E35BFD4F80818093BB009F5F909367
:100F40006D0290916D0280916E02981710F485ECFD
:100F500001C085E88093BC000FC085EC8093BC0085
:100F600009C01092900285ED8093BC008091BC0076
:100F700084FDFCCF10922302FF91EF91BF91AF91BE
:100F80009F918F917F916F915F914F913F912F91A1
:100F90000F900FBE0F901F9018951092230281E0C2
:100FA000809325021092260282E161E00E942A08C5
:100FB00083E161E00E942A08E9EBF0E080818E7F06
:100FC000808380818D7F808388E48093B80085E46E
:100FD0008093BC000895CF93DF93482F50E0CA015F
:100FE00086569F4FFC0134914A575F4FFA01849116
:100FF000882369F190E0880F991FFC01E859FF4FA1
:10100000A591B491FC01EE58FF4FC591D491662390
:1010100051F42FB7F8948C91932F909589238C934A
:10102000888189230BC0623061F42FB7F8948C91CA
:10103000932F909589238C938881832B88832FBF4E
:1010400006C09FB7F8948C91832B8C939FBFDF9140
:10105000CF910895482F50E0CA0182559F4FFC015F
:101060002491CA0186569F4FFC0194914A575F4FC5
:10107000FA013491332309F440C0222351F1233083
:1010800071F0243028F42130A1F0223011F514C081
:101090002630B1F02730C1F02430D9F404C080915B
:1010A00080008F7703C0809180008F7D80938000C7
:1010B00010C084B58F7702C084B58F7D84BD09C010
:1010C0008091B0008F7703C08091B0008F7D8093B6
:1010D000B000E32FF0E0EE0FFF1FEE58FF4FA59199
:1010E000B4912FB7F894662321F48C9190958923BD
:1010F00002C08C91892B8C932FBF0895682F70E0CC
:10110000CB0182559F4FFC012491CB0186569F4F06
:10111000FC0144916A577F4FFB019491992319F484
:1011200020E030E03CC0222351F1233071F0243024
:1011300028F42130A1F0223011F514C02630B1F08E
:101140002730C1F02430D9F404C0809180008F771B
:1011500003C0809180008F7D8093800010C084B593
:101160008F7702C084B58F7D84BD09C08091B000A7
:101170008F7703C08091B0008F7D8093B000892F5E
:1011800090E0880F991F84589F4FFC01A591B4915E
:101190008C9120E030E0842311F021E030E0C9019F
:1011A00008951F920F920FB60F9211242F933F9321
:1011B0008F939F93AF93BF938091950290919602E6
:1011C000A0919702B0919802309199020196A11DC9
:1011D000B11D232F2D5F2D3720F02D570196A11D16
:1011E000B11D209399028093950290939602A0934B
:1011F0009702B09398028091910290919202A091EF
:101200009302B09194020196A11DB11D80939102A9
:1012100090939202A0939302B0939402BF91AF91E6
:101220009F918F913F912F910F900FBE0F901F9024
:1012300018958FB7F89420919502309196024091BD
:101240009702509198028FBFB901CA010895019782
:1012500039F0880F991F880F991F02970197F1F7AE
:101260000895789484B5826084BD84B5816084BD1E
:1012700085B5826085BD85B5816085BDEEE6F0E00F
:10128000808181608083E1E8F0E01082808182606B
:101290008083808181608083E0E8F0E080818160EC
:1012A0008083E1EBF0E0808184608083E0EBF0E01C
:1012B000808181608083EAE7F0E0808184608083C0
:1012C000808182608083808181608083808180686A
:1012D00080831092C10008950895CF93DF930E94F8
:1012E00031090E946C090E94BE00CBE0DAE00E9446
:1012F000A4002097E1F30E940B0AF9CFCF92DF926E
:10130000EF92FF920F931F93CF93DF937C016B01BA
:101310008A01C0E0D0E00FC0D6016D916D01D70108
:10132000ED91FC910190F081E02DC7010995C80F66
:10133000D91F015010400115110571F7CE01DF9141
:10134000CF911F910F91FF90EF90DF90CF90089574
:10135000DC01ED91FC910190F081E02D099508955B
:10136000CF93DF93EC016115710519F420E030E0B3
:101370000FC0DB010D900020E9F71197A61BB70BFA
:10138000E881F9810280F381E02DAD0109959C018E
:10139000C901DF91CF9108950E94B0090895089581
:1013A0001F920F920FB60F9211242F933F934F93DA
:1013B0008F939F93EF93FF938091C00082FD1DC098
:1013C0004091C6002091DA023091DB022F5F3F4F3F
:1013D0002F7330708091DC029091DD02281739075D
:1013E00071F0E091DA02F091DB02E656FD4F4083A6
:1013F0003093DB022093DA0202C08091C600FF9195
:10140000EF919F918F914F913F912F910F900FBE30
:101410000F901F901895E0912E03F0912F03E05C40
:10142000FF4F8191919120813181805C9F4F821B80
:10143000930B60E470E00E94E70B892B11F00E948F
:10144000CF0908951F920F920FB60F9211242F9378
:101450003F938F939F93EF93FF9320911E033091BF
:101460001F0380912003909121032817390731F43D
:101470008091C1008F7D8093C10014C0E091200352
:10148000F0912103E252FD4F208180912003909141
:10149000210301968F739070909321038093200312
:1014A0002093C600FF91EF919F918F913F912F91D3
:1014B0000F900FBE0F901F901895AF92BF92DF92C2
:1014C000EF92FF920F931F93CF93DF93EC017A017A
:1014D0008B01DD24403081EE580780E0680780E012
:1014E000780711F0DD24D39491E0A92EB12CEC897A
:1014F000FD89DD2069F0C50108A002C0880F991F91
:101500000A94E2F7808360E079E08DE390E005C023
:10151000108260E874E88EE190E0A80197010E94D3
:10152000FA0B215030404040504056954795379532
:10153000279580E12030380720F0DD2011F0DD24F0
:10154000D6CFE889F9893083EA89FB89208319A2FB
:10155000EE89FF89408121E030E0C9010C8C02C096
:10156000880F991F0A94E2F7482B4083EE89FF8980
:101570004081C9010D8C02C0880F991F0A94E2F7BF
:10158000482B4083EE89FF894081C9010E8C02C03F
:10159000880F991F0A94E2F7482B4083EE89FF8950
:1015A00080810F8C02C0220F331F0A94E2F720952E
:1015B00028232083DF91CF911F910F91FF90EF900F
:1015C000DF90BF90AF900895DC011C96ED91FC91E7
:1015D0001D97E05CFF4F8191919120813181805C6A
:1015E0009F4F821B930B60E470E00E94E70B08950D
:1015F000DC011C96ED91FC911D97E05CFF4F208172
:101600003181E054F040DF01AE5BBF4F8D919C9182
:1016100011972817390719F42FEF3FEF07C08D9165
:101620009C91E80FF91F8081282F30E0C9010895AF
:10163000DC011C96ED91FC911D97E05CFF4F208131
:101640003181E054F040DF01AE5BBF4F8D919C9142
:1016500011972817390719F42FEF3FEF10C08D911C
:101660009C911197E80FF91F20818D919C91119702
:1016700001968F73907011969C938E9330E0C90100
:101680000895DC0191968C919197882339F05496B6
:10169000ED91FC915597808186FFF9CF91961C9230
:1016A0000895CF93DF93EC01EE85FF85E05CFF4F5B
:1016B00020813181E054F0402F5F3F4F2F73307015
:1016C000DF01AE5BBF4F8D919C91119728173907B1
:1016D000D1F3E05CFF4F80819181E054F040E80F4E
:1016E000F91F6083EE85FF85E05CFF4F3183208327
:1016F000EE89FF89208181E090E00F8C02C0880F85
:10170000991F0A94E2F7282B208381E089A3EC89B2
:10171000FD8980818064808381E090E0DF91CF91BA
:101720000895109225031092240388EE93E0A0E020
:10173000B0E08093260390932703A0932803B093EF
:1017400029038CE491E090932303809322038AE998
:1017500092E090932F0380932E038EED92E090936E
:1017600031038093300385EC90E0909333038093B2
:10177000320384EC90E0909335038093340380EC43
:1017800090E0909337038093360381EC90E0909340
:1017900039038093380382EC90E090933B0380936D
:1017A0003A0386EC90E090933D0380933C0384E001
:1017B00080933E0383E080933F0387E08093400360
:1017C00085E08093410381E080934203089597FB75
:1017D000092E07260AD077FD04D02ED006D000208F
:1017E0001AF4709561957F4F0895F6F7909581955D
:1017F0009F4F0895A1E21A2EAA1BBB1BFD010DC02D
:10180000AA1FBB1FEE1FFF1FA217B307E407F507B0
:1018100020F0A21BB30BE40BF50B661F771F881F8C
:10182000991F1A9469F760957095809590959B0122
:10183000AC01BD01CF010895AA1BBB1B51E107C03C
:10184000AA1FBB1FA617B70710F0A61BB70B881F50
:10185000991F5A95A9F780959095BC01CD010895DF
:10186000EE0FFF1F0590F491E02D0994F894FFCF3F
:1018700048656C6C6F20637275656C20776F726C55
:10188000642E003132333435363738392A30230D5F
:101890000C0B0A09080700000000E203DD03D9036E
:1018A000000000005F047E09000000007A05490581
:1018B00002050B052005310500000000510B7E09D3
:0818C000E40A180BF80A410BC1
:00000001FF
