:100000000C9464000C9438060C9465060C948C00D7
:100010000C948C000C948C000C948C000C948C0030
:100020000C948C000C948C000C948C000C948C0020
:100030000C948C000C948C000C948C000C948C0010
:100040000C9478070C948C000C94430A0C94950A39
:100050000C948C000C948C000C948C000C948C00F0
:100060000C9466040C948C0000000000240027000F
:100070002A0000000000250028002B0000000000DE
:1000800023002600290004040404040404040202DA
:100090000202020203030303030301020408102007
:1000A0004080010204081020010204081020000012
:1000B0000007000201000003040600000000000029
:1000C0000000DE005C03040C11241FBECFEFD8E05B
:1000D000DEBFCDBF11E0A0E0B1E0E4E9F9E102C08C
:1000E00005900D92A43EB107D9F713E0A4EEB1E05C
:1000F00001C01D92A037B107E1F710E0C8ECD0E0D5
:1001000004C02297FE010E94C40CC23CD107C9F76B
:100110000E94BF080C94C80C0C9400000F931F930E
:100120008C0181E090E0F8019583848380816BE409
:1001300070E00E945E08F801828161E00E94D106B1
:100140001F910F9108950F931F938C01FC0115824D
:10015000148280816BE470E00E945E08F801828165
:1001600060E00E94D1061F910F9108950F931F9395
:100170008C0182E090E0F80195838483808160E0C7
:100180000E94D106F801828160E00E94D1061F9191
:100190000F9108950F931F938C01862FF8016083B0
:1001A00071835383428361E00E949206F801828149
:1001B00061E00E9492061F910F91089586EE91E0F2
:1001C0000E94060280EF91E069E070E048E050E0B4
:1001D0000E94CA0008958091BA01882349F01092C4
:1001E000BA0180EF91E00E94B60081E08093F801AF
:1001F00008951F93CF93DF938AE00E942507EC01B7
:100200008130910539F58091F601882319F581E057
:100210008093F6018EE493E065E271E00E942F0A7C
:1002200086EE91E00E94B90286EE91E064E371E00F
:100230000E942C0A80EF91E00E948E0086EE91E0F1
:1002400060E041E00E94A20286EE91E060E471E08D
:100250000E942C0A8091F801813009F054C010915D
:10026000F601113009F04FC086EE91E00E94B9020C
:1002700086EE91E06AE471E00E942C0A60ED77E07E
:1002800080E090E00E94C00786EE91E00E94B902F3
:1002900086EE91E062E571E00E942C0A80EF91E029
:1002A0000E94A30068EE73E080E090E00E94C00727
:1002B00080EF91E00E94B60086EE91E00E94B902C4
:1002C00086EE91E06DE571E00E942C0A86EE91E0E9
:1002D00060E041E00E94A20286EE91E065E671E0F6
:1002E0000E942C0A80E06BEE70E041E050E00E943A
:1002F00015061093BB011092F6011092F7011092AF
:10030000F8011093BA0162E370E080E090E00E948F
:10031000C0078091E4019091E5010A970CF44AC06E
:100320001092E5011092E4018EE493E062E771E03F
:100330000E942C0A8EE493E06091BB014AE050E0F9
:100340000E94A9098EE493E06DE771E00E942C0AF7
:100350008EE493E06091F6014AE050E00E94A90922
:100360008EE493E069E871E00E942C0A8EE493E049
:10037000BE014AE050E00E94190A8EE493E069E968
:1003800071E00E942C0A6091BA018EE493E070E063
:100390004AE050E00E94190A8EE493E068EA71E0B6
:1003A0000E942C0A8EE493E06091F8014AE050E04C
:1003B0000E94BB098091E4019091E5010196909320
:1003C000E5018093E401DF91CF911F9108958EE4C0
:1003D00093E040E855E260E070E00E94D00A86EECB
:1003E00091E060E142E020E00E94C1028AE060E02A
:1003F0000E94920682E060E00E94920680E06BEE2E
:1004000070E043E050E00E9415060895FC0113825D
:10041000128280EC91E0918380830895EF92FF92A5
:100420000F931F93162F042F8FE3E82E82E0F82EF0
:10043000C70162E670E00E942203C701612F0E949B
:10044000A403C701602F0E94A403C7010E94E70311
:100450001F910F91FF90EF900895EF92FF920F93ED
:100460001F938C01362FF42EE22E64E0432F0E945E
:100470000E02C80163E04F2D0E940E02C80162E027
:100480004E2D0E940E021F910F91FF90EF90089544
:10049000EF92FF920F931F93CF93DF937C01162F60
:1004A0008FE392E06EE370E00E942203C0E0D0E0B0
:1004B000012F10E009C0F701EC0FFD1F8FE392E060
:1004C00060810E94A4032196C017D107A4F38FE393
:1004D00092E00E94E703DF91CF911F910F91FF906F
:1004E000EF900895DF93CF9300D0CDB7DEB780E4CF
:1004F00089836A83CE01019662E00E94480281E00E
:1005000090E00F900F90CF91DF910895DF93CF93FC
:1005100000D0CDB7DEB780E889836A83CE0101962B
:1005200062E00E9448020F900F90CF91DF910895F2
:10053000FC016581862F846085836C60CF010E94F9
:1005400086020895DF93CF9300D0CDB7DEB7442362
:1005500011F4606801C0606C80E889836A83CE0111
:10056000019662E00E9448020F900F90CF91DF91B8
:10057000089561E00E94860280ED97E00E941908CC
:1005800008950F931F93CF93DF93EC01142F022F45
:100590008FE392E00E94EB03123018F08C818860A8
:1005A0008C8318871986002329F0113019F48C8167
:1005B00084608C8380E593EC0E9419086C816062F2
:1005C000CE010E94860284E991E10E9419086C81A3
:1005D0006062CE010E94860286E990E00E941908BE
:1005E0006C816062CE010E9486026C816062CE01E5
:1005F0000E94860284E08D83CE010E949802CE0183
:100600000E94B90282E08E83CE0166E00E948602DB
:10061000CE0160E040E00E940E02CE0161E040E0C9
:100620000E940E02CE0168E04AEA0E940E02CE014C
:100630006FEF4FEF2FEF0E942D02DF91CF911F91AF
:100640000F91089581E080933E0260931B02109207
:100650003C0210923D02089520911A0230E08091F0
:100660001902281B3109C90108954091190280918E
:100670001A02481718F02FEF3FEF0AC0E42FF0E0FE
:10068000E750FE4F8081282F30E04F5F40931902E2
:10069000C9010895E091190280911A02E81718F033
:1006A000EFEFFFEF06C0F0E0E750FE4F8081E82F4C
:1006B000F0E0CF0108950895109242021092410295
:1006C00088EE93E0A0E0B0E0809343029093440270
:1006D000A0934502B093460288EC91E090934002CB
:1006E00080933F020895CF92DF92EF92FF920F9393
:1006F0001F93CF93DF937C016B018A0180913E02AF
:100700008823A1F0C0E0D0E00DC0D701ED91FC91AD
:10071000D601AC0FBD1F0190F081E02DC7016C9197
:1007200009952196C017D10780F304C0CB01642F2F
:100730000E944B04C801DF91CF911F910F91FF9050
:10074000EF90DF90CF900895DF93CF930F92CDB7C6
:10075000DEB7FC01698380913E028823C9F0809155
:100760003D02803238F081E090E09383828320E084
:1007700030E015C080913C02E82FF0E0E45EFD4FD0
:10078000998190838F5F80933C0280933D0205C0E6
:10079000CE01019661E00E944B0421E030E0C901E6
:1007A0000F90CF91DF9108950F93062F80911B0238
:1007B0006CE172E040913D0221E00E94F60310924C
:1007C0003C0210923D0210923E020F91089561E0AA
:1007D0000E94D40308951092190210921A021092E6
:1007E0003C0210923D020E94F70508950F931F935B
:1007F000582F122F413210F081E04AC080914B02F5
:100800008823E1F782E080934B0200934D028FEF43
:100810008093B8021092730240937402A3E5B2E091
:10082000FB0102C081918D938E2F861B8417D0F31C
:1008300010924C0280914C02550F852B80934C02F4
:1008400080914E02813041F410924E0280914C0210
:100850008093BB0085EC01C085EE8093BC00112322
:1008600021F080914B028230E1F38091B8028F3FFA
:1008700011F480E00DC08091B802803211F482E062
:1008800007C08091B802803311F084E001C083E09A
:100890001F910F910895482F613210F081E0089563
:1008A00080914B02843011F082E0089560939602AB
:1008B000A5E7B2E0842F9C01F90102C081918D93DC
:1008C0008E2F841B8617D0F380E008951F920F921D
:1008D0000FB60F9211242F933F934F935F936F9313
:1008E0007F938F939F93AF93BF93EF93FF938091E9
:1008F000B90090E0887F90708036910509F4F2C0CD
:1009000081369105CCF58832910509F47BC0893296
:100910009105B4F48031910509F46FC081319105DE
:100920003CF4009709F447C1089709F04FC165C02E
:100930008831910509F466C0809709F047C182C0EB
:100940008034910509F4A4C08134910544F48033C6
:10095000910509F482C0C89709F038C189C0803573
:10096000910509F489C08835910509F496C0883449
:10097000910509F02BC1AEC08839910509F413C166
:1009800089399105ECF48837910509F4ABC08937B2
:1009900091054CF48836910509F4A4C0803791057F
:1009A00009F014C19FC08838910509F4FCC0803952
:1009B000910509F49DC08038910509F007C198C0E0
:1009C000803B910509F4C6C0813B91054CF4803A07
:1009D000910509F49FC0883A910509F0F7C0BAC0A3
:1009E000803C910509F4E3C0883C910509F4DFC01F
:1009F000883B910509F0EAC0C2C080914C02809307
:100A0000BB00CFC09091730280917402981768F474
:100A100090917302E92FF0E0ED5AFD4F80818093B1
:100A2000BB009F5F90937302BCC080914D028823EE
:100A300009F44BC085ED8093BC008091BC0084FD1F
:100A4000FCCFC2C080E28093B80285ED8093BC00E9
:100A50008091BC0084FDFCCFB7C080E38093B802D6
:100A600085ED8093BC008091BC0084FDFCCFACC0C0
:100A700088E38093B8029BC0809173029091BB0081
:100A8000E82FF0E0ED5AFD4F90838F5F8093730263
:100A9000909173028091740282C080917302909150
:100AA000BB00E82FF0E0ED5AFD4F90838F5F8093FD
:100AB000730280914D02882341F085ED8093BC0044
:100AC0008091BC0084FDFCCF7FC081E080934E020A
:100AD00084EA6EC085ED8093BC008091BC0084FDEB
:100AE000FCCF72C083E080934B021092B70259C0D2
:100AF0008091B702803208F056C08091B702909181
:100B0000BB00E82FF0E0E956FD4F90838F5F8093A4
:100B1000B70247C08091B702803230F4E091B7024B
:100B2000F0E0E956FD4F108285ED8093BC00809186
:100B3000BC0084FDFCCF10924B026091B702E091A3
:100B40005102F091520287E992E070E0099510920B
:100B5000B7022DC084E080934B0210929502109250
:100B60009602E0914F02F091500209958091960211
:100B7000882329F481E08093960210927502909167
:100B80009502E92FF0E0EB58FD4F80818093BB0088
:100B90009F5F90939502909195028091960298178D
:100BA00010F485EC01C085E88093BC000FC085EC93
:100BB0008093BC0009C01092B80285ED8093BC0000
:100BC0008091BC0084FDFCCF10924B02FF91EF910D
:100BD000BF91AF919F918F917F916F915F914F9155
:100BE0003F912F910F900FBE0F901F90189510926C
:100BF0004B0281E080934D0210924E0282E161E04F
:100C00000E94D10683E161E00E94D106E9EBF0E0A9
:100C100080818E7F808380818D7F808388E4809334
:100C2000B80085E48093BC000895823000F5E82F79
:100C3000F0E0EE0FFF1FE754FD4F718360838823C0
:100C400019F08130A1F408C0809169008C7F842B59
:100C500080936900E89A089580916900440F551FB8
:100C6000440F551F837F842B80936900E99A089570
:100C70001F920F920FB60F9211242F933F934F9311
:100C80005F936F937F938F939F93AF93BF93EF93F4
:100C9000FF938091B9029091BA02892B29F0E091DB
:100CA000B902F091BA020995FF91EF91BF91AF910E
:100CB0009F918F917F916F915F914F913F912F9174
:100CC0000F900FBE0F901F9018951F920F920FB6A6
:100CD0000F9211242F933F934F935F936F937F93C2
:100CE0008F939F93AF93BF93EF93FF938091BB023A
:100CF0009091BC02892B29F0E091BB02F091BC02DB
:100D00000995FF91EF91BF91AF919F918F917F9145
:100D10006F915F914F913F912F910F900FBE0F9068
:100D20001F901895CF93DF93482F50E0CA01865645
:100D30009F4FFC0134914A575F4FFA0184918823F9
:100D400069F190E0880F991FFC01E859FF4FA591C8
:100D5000B491FC01EE58FF4FC591D491662351F434
:100D60002FB7F8948C91932F909589238C93888139
:100D700089230BC0623061F42FB7F8948C91932FC4
:100D8000909589238C938881832B88832FBF06C0FD
:100D90009FB7F8948C91832B8C939FBFDF91CF9159
:100DA0000895482F50E0CA0182559F4FFC012491BD
:100DB000CA0186569F4FFC0194914A575F4FFA0132
:100DC0003491332309F440C0222351F1233071F0D0
:100DD000243028F42130A1F0223011F514C026303F
:100DE000B1F02730C1F02430D9F404C080918000E4
:100DF0008F7703C0809180008F7D8093800010C02A
:100E000084B58F7702C084B58F7D84BD09C0809181
:100E1000B0008F7703C08091B0008F7D8093B000C9
:100E2000E32FF0E0EE0FFF1FEE58FF4FA591B491B6
:100E30002FB7F894662321F48C919095892302C0F2
:100E40008C91892B8C932FBF0895682F70E0CB0174
:100E500082559F4FFC012491CB0186569F4FFC0188
:100E600044916A577F4FFB019491992319F420E034
:100E700030E03CC0222351F1233071F0243028F4BB
:100E80002130A1F0223011F514C02630B1F0273006
:100E9000C1F02430D9F404C0809180008F7703C062
:100EA000809180008F7D8093800010C084B58F7703
:100EB00002C084B58F7D84BD09C08091B0008F775A
:100EC00003C08091B0008F7D8093B000892F90E0A7
:100ED000880F991F84589F4FFC01A591B4918C9164
:100EE00020E030E0842311F021E030E0C9010895D2
:100EF0001F920F920FB60F9211242F933F938F934F
:100F00009F93AF93BF938091C1029091C202A09131
:100F1000C302B091C4023091C5020196A11DB11D5A
:100F2000232F2D5F2D3720F02D570196A11DB11DC8
:100F30002093C5028093C1029093C202A093C30282
:100F4000B093C4028091BD029091BE02A091BF02F5
:100F5000B091C0020196A11DB11D8093BD02909376
:100F6000BE02A093BF02B093C002BF91AF919F9108
:100F70008F913F912F910F900FBE0F901F9018955A
:100F80009B01AC017FB7F8948091BD029091BE02A5
:100F9000A091BF02B091C00266B5A89B05C06F3F8B
:100FA00019F00196A11DB11D7FBFBA2FA92F982F4F
:100FB0008827860F911DA11DB11D62E0880F991F22
:100FC000AA1FBB1F6A95D1F7BC012DC0FFB7F894CB
:100FD0008091BD029091BE02A091BF02B091C0026B
:100FE000E6B5A89B05C0EF3F19F00196A11DB11D04
:100FF000FFBFBA2FA92F982F88278E0F911DA11DF3
:10100000B11DE2E0880F991FAA1FBB1FEA95D1F717
:10101000861B970B885E9340C8F2215030404040B9
:10102000504068517C4F211531054105510571F63D
:101030000895019739F0880F991F880F991F02971B
:101040000197F1F70895789484B5826084BD84B5E2
:10105000816084BD85B5826085BD85B5816085BDB3
:10106000EEE6F0E0808181608083E1E8F0E01082CC
:10107000808182608083808181608083E0E8F0E00D
:10108000808181608083E1EBF0E0808184608083F7
:10109000E0EBF0E0808181608083EAE7F0E080812E
:1010A000846080838081826080838081816080838E
:1010B0008081806880831092C10008951F93CF9330
:1010C000DF93182FEB0161E00E949206209709F44C
:1010D0004AC0CF3FD10509F449C0E12FF0E0E25505
:1010E000FF4F84918330C1F0843028F4813051F077
:1010F0008230B1F50CC0863019F1873049F1843067
:1011000079F514C084B5806884BDC7BD33C084B58B
:10111000806284BDC8BD2EC08091800080688093AD
:101120008000D0938900C093880024C08091800003
:10113000806280938000D0938B00C0938A001AC095
:101140008091B00080688093B000C093B30012C05B
:101150008091B00080628093B000C093B4000AC058
:10116000C038D1051CF4812F60E002C0812F61E0FE
:101170000E94D106DF91CF911F9108950895CF93DA
:10118000DF930E9423080E94BE080E94E701CEE779
:10119000DAE00E94F9002097E1F30E947E0AF9CF7D
:1011A000CF92DF92EF92FF920F931F93CF93DF9333
:1011B0007C016B018A01C0E0D0E00FC0D6016D91C7
:1011C0006D01D701ED91FC910190F081E02DC701F7
:1011D0000995C80FD91F015010400115110571F76D
:1011E000CE01DF91CF911F910F91FF90EF90DF9093
:1011F000CF900895EF92FF920F931F938C01DC0123
:10120000ED91FC910190F081E02D6DE009957C015C
:10121000D801ED91FC910190F081E02DC8016AE0C8
:1012200009959C012E0D3F1DC9011F910F91FF9043
:10123000EF900895CF93DF93EC016115710519F4D8
:1012400020E030E00FC0DB010D900020E9F711979E
:10125000A61BB70BE881F9810280F381E02DAD0177
:1012600009959C01C901DF91CF9108954F925F923A
:101270007F928F929F92AF92BF92CF92DF92EF9226
:10128000FF920F931F93DF93CF93CDB7DEB7A19754
:101290000FB6F894DEBF0FBECDBF2C01742ECB016C
:1012A000223008F42AE019A231E2C32ED12CCC0E50
:1012B000DD1E822E9924AA24BB24672D752FA5013B
:1012C00094010E948C0C79018A01C801B701A50123
:1012D00094010E945A0C472D461B0894C108D1085E
:1012E0004A3014F4405D01C0495CF6014083E114CA
:1012F000F1040105110521F07E2C5F2DC801DDCF21
:10130000C201B6010E941A09A1960FB6F894DEBF79
:101310000FBECDBFCF91DF911F910F91FF90EF9046
:10132000DF90CF90BF90AF909F908F907F905F9015
:101330004F900895DC012115310541F4ED91FC91A8
:101340000190F081E02D642F099508950E943609DF
:101350000895EF92FF920F931F939A01E62EFF24B8
:1013600000E010E0B801A7010E949A091F910F91B7
:10137000FF90EF900895CF92DF92EF92FF920F933C
:101380001F936C01E62E9A01FF2400E010E0B801E3
:10139000A7010E949A098C01C6010E94FA08080F51
:1013A000191FC8011F910F91FF90EF90DF90CF9010
:1013B0000895CF92DF92EF92FF920F931F93CF93F6
:1013C000DF93EC016A017B012115310541F4E881CD
:1013D000F9810190F081E02D642F09951FC02A301A
:1013E0003105D1F477FF17C0E881F9810190F081D0
:1013F000E02D6DE209958C0144275527BA014C195F
:101400005D096E097F09CE012AE00E943609980124
:10141000280F391F04C02AE00E9436099C01C90127
:10142000DF91CF911F910F91FF90EF90DF90CF90C0
:101430000895EF92FF920F931F937B019A0100276B
:10144000F7FC0095102FB801A7010E94D9091F9140
:101450000F91FF90EF9008950E941A090895EF925E
:10146000FF920F931F937C010E941A098C01C70100
:101470000E94FA08080F191FC8011F910F91FF90D1
:10148000EF90089508951F920F920FB60F921124B6
:101490002F933F934F938F939F93EF93FF9380915D
:1014A000C00082FD1DC04091C6002091060330910E
:1014B00007032F5F3F4F2F73307080910803909187
:1014C00009032817390771F0E0910603F09107032B
:1014D000EA53FD4F4083309307032093060302C075
:1014E0008091C600FF91EF919F918F914F913F9115
:1014F0002F910F900FBE0F901F901895E0915A03F7
:10150000F0915B03E05CFF4F8191919120813181EB
:10151000805C9F4F821B930B60E470E00E94790C0B
:10152000892B11F00E94420A08951F920F920FB664
:101530000F9211242F933F938F939F93EF93FF93D9
:1015400020914A0330914B0380914C0390914D03BD
:101550002817390731F48091C1008F7D8093C10035
:1015600014C0E0914C03F0914D03E65FFC4F2081E5
:1015700080914C0390914D0301968F7390709093DE
:101580004D0380934C032093C600FF91EF919F91F0
:101590008F913F912F910F900FBE0F901F90189534
:1015A000AF92BF92DF92EF92FF920F931F93CF9370
:1015B000DF93EC017A018B01DD24403081EE580786
:1015C00080E0680780E0780711F0DD24D39491E093
:1015D000A92EB12CEC89FD89DD2069F0C50108A098
:1015E00002C0880F991F0A94E2F7808360E079E0D7
:1015F0008DE390E005C0108260E874E88EE190E031
:10160000A80197010E948C0C21503040404050406E
:10161000569547953795279580E12030380720F07B
:10162000DD2011F0DD24D6CFE889F9893083EA89FD
:10163000FB89208319A2EE89FF89408121E030E0F7
:10164000C9010C8C02C0880F991F0A94E2F7482B3D
:101650004083EE89FF894081C9010D8C02C0880F4B
:10166000991F0A94E2F7482B4083EE89FF89408155
:10167000C9010E8C02C0880F991F0A94E2F7482B0B
:101680004083EE89FF8980810F8C02C0220F331FB7
:101690000A94E2F7209528232083DF91CF911F91B0
:1016A0000F91FF90EF90DF90BF90AF900895DC0115
:1016B0001C96ED91FC911D97E05CFF4F81919191FB
:1016C00020813181805C9F4F821B930B60E470E02E
:1016D0000E94790C0895DC011C96ED91FC911D97F8
:1016E000E05CFF4F20813181E054F040DF01AE5BD0
:1016F000BF4F8D919C9111972817390719F42FEF3F
:101700003FEF07C08D919C91E80FF91F8081282F32
:1017100030E0C9010895DC011C96ED91FC911D9704
:10172000E05CFF4F20813181E054F040DF01AE5B8F
:10173000BF4F8D919C9111972817390719F42FEFFE
:101740003FEF10C08D919C911197E80FF91F2081F8
:101750008D919C91119701968F73907011969C9327
:101760008E9330E0C9010895DC0191968C91919798
:10177000882339F05496ED91FC915597808186FF2E
:10178000F9CF91961C920895CF93DF93EC01EE85EB
:10179000FF85E05CFF4F20813181E054F0402F5FF6
:1017A0003F4F2F733070DF01AE5BBF4F8D919C9127
:1017B000119728173907D1F3E05CFF4F80819181A1
:1017C000E054F040E80FF91F6083EE85FF85E05C90
:1017D000FF4F31832083EE89FF89208181E090E0F3
:1017E0000F8C02C0880F991F0A94E2F7282B2083E0
:1017F00081E089A3EC89FD8980818064808381E018
:1018000090E0DF91CF910895109251031092500310
:1018100088EE93E0A0E0B0E08093520390935303EE
:10182000A0935403B093550388ED91E090934F0338
:1018300080934E0386EC92E090935B0380935A036F
:101840008AE093E090935D0380935C0385EC90E0E5
:1018500090935F0380935E0384EC90E09093610328
:101860008093600380EC90E0909363038093620325
:1018700081EC90E0909365038093640382EC90E0A8
:10188000909367038093660386EC90E090936903DE
:101890008093680384E080936A0383E080936B0302
:1018A00087E080936C0385E080936D0381E08093F3
:1018B0006E030895629FD001739FF001829FE00D37
:1018C000F11D649FE00DF11D929FF00D839FF00DBF
:1018D000749FF00D659FF00D9927729FB00DE11D6B
:1018E000F91F639FB00DE11DF91FBD01CF01112448
:1018F000089597FB092E07260AD077FD04D02ED035
:1019000006D000201AF4709561957F4F0895F6F780
:10191000909581959F4F0895A1E21A2EAA1BBB1B9B
:10192000FD010DC0AA1FBB1FEE1FFF1FA217B307AB
:10193000E407F50720F0A21BB30BE40BF50B661FC1
:10194000771F881F991F1A9469F760957095809585
:1019500090959B01AC01BD01CF010895AA1BBB1B53
:1019600051E107C0AA1FBB1FA617B70710F0A61B9F
:10197000B70B881F991F5A95A9F780959095BC01C0
:10198000CD010895EE0FFF1F0590F491E02D09940D
:04199000F894FFCFF9
:10199400536167616E2069732064656164004D6FF3
:1019A400746F72204F666600426C696E6B696E6775
:1019B400204C4544004D6F746F72207374617274CF
:1019C400696E67004D6F746F722053746172740096
:1019D400425245414B4245414D0053746F7070650E
:1019E400640052657472616374696E67004D697353
:1019F40073696F6E004163636F6D706C69736865C2
:101A04006400636C61775F6469723A2000206D6FD3
:101A1400746F725F6F6E3A200020627574746F6E1B
:101A24002073746174653A200020746F67676C6575
:101A340073746174653A20002061726D207265745C
:101A440072616374696E673A20000101000000004E
:101A54007202D00800000000A40373032C033503B2
:101A64004A035B0300000000C40BD008570B8B0B28
:041A74006B0BB40B39
:00000001FF
